:100000000C9446000C9465000C9465000C946500FB
:100010000C9465000C9465000C9465000C946500CC
:100020000C9465000C9465000C9465000C946500BC
:100030000C9465000C94DE000C9465000C94650033
:100040000C9465000C9465000C9465000C9465009C
:100050000C9465000C9465000C9465000C9465008C
:100060000C9465000C9465000C9465000C9465007C
:100070000C9465000C9465000C9465000C9465006C
:100080000C9465000C9465000C94650011241FBE4F
:10009000CFEFD0E4DEBFCDBF11E0A0E0B1E0E6EAF3
:1000A000F9E000E00BBF02C007900D92A231B1074A
:1000B000D9F721E0A2E1B1E001C01D92A032B20760
:1000C000E1F70E9400030C94D1040C940000CF933C
:1000D000DF9300D01F92CDB7DEB789837B836A831D
:1000E00089818A3031F48A819B81BC018DE00E9434
:1000F000670080EC90E0FC018081882F90E08072A6
:100100009927892BB1F386EC90E02981FC012083AB
:1001100080E090E00F900F900F90DF91CF910895C5
:10012000CF93DF93CDB7DEB781E890E02BE0FC0101
:10013000208388E890E02DE730E0FC0131832083C4
:100140008FE690E022E0FC01208384E890E0FC014F
:100150001182108280910E0190910F01A0911001E7
:10016000B09111018093130190931401A093150194
:10017000B09316018FE590E02FE530E0F901208182
:100180002068FC0120830000DF91CF910895CF9378
:10019000DF93CDB7DEB781E890E0FC01108200006C
:1001A000DF91CF910895CF93DF93CDB7DEB781E094
:1001B000809312010000DF91CF9108951F920F925A
:1001C00000905F000F92112400905B000F922F931C
:1001D0003F934F935F936F937F938F939F93AF93CF
:1001E000BF93EF93FF93CF93DF93CDB7DEB78091AB
:1001F000130190911401A0911501B091160101977E
:10020000A109B1098093130190931401A0931501E2
:10021000B09316018091130190911401A0911501E2
:10022000B0911601892B8A2B8B2B91F40E94D3005D
:1002300080910E0190910F01A0911001B0911101D8
:100240008093130190931401A0931501B0931601AC
:100250000000DF91CF91FF91EF91BF91AF919F91FE
:100260008F917F916F915F914F913F912F910F905F
:1002700000925B000F9000925F000F901F90189506
:10028000CF93DF9300D000D0CDB7DEB769837A83F8
:100290008B839C8389819A81AB81BC8180930E0181
:1002A00090930F01A0931001B093110180910E0162
:1002B00090910F01A0911001B09111018093130151
:1002C00090931401A0931501B093160100000F90B4
:1002D0000F900F900F90DF91CF9108950F931F9380
:1002E000CF93DF9300D000D0CDB7DEB769837A8398
:1002F0008B839C838091190190911A01A0911B011D
:10030000B0911C019C01AD0169817A818B819C8136
:100310000E943D03882309F477C020E030E0A90162
:1003200069817A818B819C810E943D03882351F4ED
:1003300081E990E021E930E0F90120812870FC0199
:10034000208309C081E990E021E930E0F9012081B2
:100350002360FC01208328E539E344E75FE36981FA
:100360007A818B819C810E943D03882344F488E933
:1003700090E02FEF3FEFFC013183208334C020E079
:1003800034E244EF56E469817A818B819C810E943A
:100390005F04181634F488E990E0FC0111821082A1
:1003A00022C008E910E020E030E040E053E4698139
:1003B0007A818B819C810E946404DC01CB019C01C9
:1003C000AD0160E074E284EF9AE40E944203DC0134
:1003D000CB01BC01CD010E94B403DC01CB0101972C
:1003E000F8019183808384E990E0FC0111821082FE
:1003F00089819A81AB81BC818093190190931A0104
:10040000A0931B01B0931C0100000F900F900F9060
:100410000F90DF91CF911F910F910895CF93DF93AC
:10042000CDB7DEB780E990E020E4FC01208381E9CC
:1004300090E02BE0FC01208360E070E0CB010E94A3
:100440006E010000DF91CF910895CF93DF93CDB778
:10045000DEB780E990E0FC01108281E990E0FC01C8
:1004600010820000DF91CF910895CF93DF93CDB735
:10047000DEB780911E0190911F0181309105B9F086
:100480008130910540F08230910509F478C00397DE
:1004900009F4A1C0A7C080911D01882309F4A7C059
:1004A00081E090E090931F0180931E01A0C00E9404
:1004B0000E0280911D01882319F481E080931801B8
:1004C00080911701882331F464EA70ED82E893E4A7
:1004D0000E946E0180911701813031F464EA70ED61
:1004E00082E893E40E946E0180911701823031F41A
:1004F00060E070E084EC93E40E946E01809117014B
:10050000833031F460E070E084EC93E40E946E018B
:1005100080911701843031F460E070E08CED93E459
:100520000E946E0180911701853031F460E070E027
:100530008CED93E40E946E0180911701863031F4B6
:1005400060E070E084EC93E40E946E0180911701FA
:100550008F5F8093170183E090E090931F01809359
:100560001E0180911701873008F443C010921701D3
:1005700082E090E090931F0180931E013AC00E9498
:10058000250280911801882371F480911D01882330
:1005900091F581E08093180182E090E090931F0133
:1005A00080931E0128C080911D01882369F08091ED
:1005B0001801882349F01092180181E090E090938F
:1005C0001F0180931E0117C082E090E090931F01ED
:1005D00080931E0110C081E090E090931F018093F2
:1005E0001E010AC010921F0110921E0105C00000DA
:1005F00003C0000001C000000000DF91CF9108950A
:10060000CF93DF93CDB7DEB781E290E0FC0110829B
:1006100080E290E02FEFFC01208384E290E020E470
:10062000FC01208385E290E0FC01108264EF71E020
:1006300080E090E00E9440010E9490000E940E0223
:1006400010921F0110921E0180E290E0FC01808157
:10065000882F90E08170992721E0892B09F020E014
:10066000822F80931D010E943502000080911201AB
:100670008823E1F310921201E7CF0E94EA0308F405
:1006800081E008950E9456030C9425040E941E04E4
:1006900058F00E94170440F029F45F3F29F00C94B1
:1006A0000E0451110C9459040C9414040E94360445
:1006B00068F39923B1F3552391F3951B550BBB2791
:1006C000AA2762177307840738F09F5F5F4F220FD6
:1006D000331F441FAA1FA9F335D00E2E3AF0E0E8CD
:1006E00032D091505040E695001CCAF72BD0FE2F17
:1006F00029D0660F771F881FBB1F261737074807AB
:10070000AB07B0E809F0BB0B802DBF01FF27935862
:100710005F4F3AF09E3F510578F00C940E040C9414
:1007200059045F3FE4F3983ED4F386957795679537
:10073000B795F7959F5FC9F7880F911D9695879597
:1007400097F90895E1E0660F771F881FBB1F6217B6
:1007500073078407BA0720F0621B730B840BBA0B74
:10076000EE1F88F7E09508950E94BB036894B111CD
:100770000C94590408950E943E0488F09F5798F005
:10078000B92F9927B751B0F0E1F0660F771F881F96
:10079000991F1AF0BA95C9F714C0B13091F00E94B0
:1007A0005804B1E008950C945804672F782F8827D7
:1007B000B85F39F0B93FCCF3869577956795B395D7
:1007C000D9F73EF490958095709561957F4F8F4F46
:1007D0009F4F0895990F0008550FAA0BE0E8FEEF10
:1007E00016161706E807F907C0F012161306E407F5
:1007F000F50798F0621B730B840B950B39F40A26EE
:1008000061F0232B242B252B21F408950A2609F4CB
:10081000A140A6958FEF811D811D089597F99F67CF
:1008200080E870E060E008959FEF80EC0895002478
:100830000A941616170618060906089500240A9445
:1008400012161306140605060895092E0394000CCB
:1008500011F4882352F0BB0F40F4BF2B11F460FF5A
:1008600004C06F5F7F4F8F4F9F4F089557FD905883
:10087000440F551F59F05F3F71F04795880F97FB64
:10088000991F61F09F3F79F087950895121613061E
:100890001406551FF2CF4695F1DF08C0161617064D
:1008A0001806991FF1CF8695710561050894089582
:1008B000E894BB2766277727CB0197F908950E9414
:1008C000EA0308F48FEF08950E9477040C9425043E
:1008D0000E94170438F00E941E0420F0952311F0A6
:1008E0000C940E040C94140411240C9459040E94CA
:1008F000360470F3959FC1F3950F50E0551F629F2A
:10090000F001729FBB27F00DB11D639FAA27F00D68
:10091000B11DAA1F649F6627B00DA11D661F829F8F
:100920002227B00DA11D621F739FB00DA11D621F74
:10093000839FA00D611D221F749F3327A00D611D91
:10094000231F849F600D211D822F762F6A2F112473
:100950009F5750409AF0F1F088234AF0EE0FFF1FA6
:10096000BB1F661F771F881F91505040A9F79E3FFD
:10097000510580F00C940E040C9459045F3FE4F38D
:10098000983ED4F3869577956795B795F795E79553
:100990009F5FC1F7FE2B880F911D9695879597F95C
:0609A0000895F894FFCF5A
:1009A60000000002000000006700000000000100D7
:0209B60000003F
:00000001FF
