:100000000C9446000C9465000C9465000C946500FB
:100010000C9465000C9465000C9465000C946500CC
:100020000C9465000C9465000C9465000C946500BC
:100030000C9465000C9465000C9465000C946500AC
:100040000C9465000C9465000C9465000C9465009C
:100050000C9465000C9465000C9465000C9465008C
:100060000C9465000C9465000C9465000C9465007C
:100070000C9465000C9465000C9465000C9465006C
:100080000C9465000C9465000C94650011241FBE4F
:10009000CFEFD0E4DEBFCDBF11E0A0E0B1E0E4E3FC
:1000A000FAE000E00BBF02C007900D92AE30B1073E
:1000B000D9F721E0AEE0B1E001C01D92A731B2074F
:1000C000E1F70E9436030C9418050C940000CF93BE
:1000D000DF9300D01F92CDB7DEB789837B836A831D
:1000E00089818A3031F48A819B81BC018DE00E9434
:1000F000670080EC90E0FC018081882F90E08072A6
:100100009927892BB1F386EC90E02981FC012083AB
:1001100080E090E00F900F900F90DF91CF910895C5
:100120000F931F93CF93DF9300D000D0CDB7DEB7EE
:1001300069837A838B839C8380910E0190910F0158
:10014000A0911001B09111019C01AD0169817A81EA
:100150008B819C810E948403882309F477C020E06E
:1001600030E0A90169817A818B819C810E9484039E
:10017000882351F481E990E021E930E0F901208100
:100180002870FC01208309C081E990E021E930E07A
:10019000F90120812360FC01208328E539E344E74D
:1001A0005FE369817A818B819C810E94840388232B
:1001B00044F488E990E02FEF3FEFFC013183208386
:1001C00034C020E034E244EF56E469817A818B81C7
:1001D0009C810E94A604181634F488E990E0FC0182
:1001E0001182108222C008E910E020E030E040E0F7
:1001F00053E469817A818B819C810E94AB04DC018C
:10020000CB019C01AD0160E074E284EF9AE40E94AE
:100210008903DC01CB01BC01CD010E94FB03DC01A1
:10022000CB010197F8019183808384E990E0FC0180
:100230001182108289819A81AB81BC8180930E01E9
:1002400090930F01A0931001B093110100000F9043
:100250000F900F900F90DF91CF911F910F91089504
:10026000CF93DF93CDB7DEB780E990E020E4FC01C7
:10027000208381E990E02BE0FC01208360E070E0C6
:10028000CB010E9490000000DF91CF910895CF93A1
:10029000DF93CDB7DEB780E990E0FC01108281E901
:1002A00090E0FC0110820000DF91CF910895CF9380
:1002B000DF93CDB7DEB780911301909114018230A6
:1002C000910509F457C18330910538F4009709F47A
:1002D0007BC0019709F4E3C0B7C18330910551F0A9
:1002E000049709F0B1C183E090E0909314018093EA
:1002F0001301B8C160E070E0CB010E9490008091D2
:100300001201882379F480911601882359F4809191
:100310001501882339F483E090E0909314018093D1
:10032000130151C080911201882369F08091160158
:10033000882349F480911501882329F4109214012F
:100340001092130140C080911201882379F48091AA
:100350001601882359F080911501882339F481E032
:1003600090E090931401809313012DC080911201AD
:10037000882379F480911601882359F4809115011E
:10038000882339F082E090E0909314018093130168
:100390001AC080911201282F30E080911601882F19
:1003A00090E0280F391F80911501882F90E0820F6F
:1003B000931F02970CF44FC183E090E090931401D7
:1003C0008093130148C147C164EA70ED82E893E469
:1003D0000E94900080911201882379F48091160187
:1003E000882359F480911501882339F483E090E043
:1003F000909314018093130151C0809112018823BE
:1004000069F080911601882349F4809115018823B1
:1004100029F4109214011092130140C0809112012E
:10042000882379F480911601882359F08091150171
:10043000882339F481E090E09093140180931301B4
:100440002DC080911201882379F4809116018823B0
:1004500059F480911501882339F082E090E090935F
:100460001401809313011AC080911201282F30E0EB
:1004700080911601882F90E0280F391F8091150177
:10048000882F90E0820F931F02970CF4E6C083E060
:1004900090E09093140180931301DFC0DEC06BE7FE
:1004A00074ED82E993E40E94900080911201882308
:1004B00079F480911601882359F4809115018823DD
:1004C00039F483E090E0909314018093130151C0BC
:1004D00080911201882369F080911601882349F4E4
:1004E00080911501882329F41092140110921301B0
:1004F00040C080911201882379F4809116018823ED
:1005000059F080911501882339F481E090E09093AF
:100510001401809313012DC080911201882379F476
:1005200080911601882359F480911501882339F0B0
:1005300082E090E090931401809313011AC080919F
:100540001201282F30E080911601882F90E0280FAB
:10055000391F80911501882F90E0820F931F029719
:100560000CF47DC083E090E090931401809313011C
:1005700076C075C064EA70ED84EA93E40E9490004E
:1005800080911201882379F480911601882359F40F
:1005900080911501882339F483E090E09093140151
:1005A0008093130150C080911201882369F08091DB
:1005B0001601882349F480911501882329F41092AB
:1005C0001401109213013FC080911201882379F425
:1005D00080911601882359F080911501882339F400
:1005E00081E090E090931401809313012CC08091DE
:1005F0001201882379F480911601882359F480919F
:100600001501882339F082E090E0909314018093E3
:10061000130119C080911201282F30E0809116013A
:10062000882F90E0280F391F80911501882F90E0C6
:10063000820F931F0297ACF083E090E09093140137
:10064000809313010EC00DC083E090E090931401DD
:100650008093130107C0000005C0000003C0000024
:1006600001C000000000DF91CF910895CF93DF9388
:10067000CDB7DEB781E290E0FC01108280E290E02D
:100680002FEFFC01208384E290E020E4FC01208332
:1006900085E290E0FC0110820E94300184E090E04D
:1006A000909314018093130180E290E0FC0180811B
:1006B000882F90E08170992721E0892B09F020E0B4
:1006C000822F8093120180E290E0FC018081882FCC
:1006D00090E0809590958270992795958795809365
:1006E000160180E290E0FC018081882F90E08095E7
:1006F0009095847099279595879595958795809382
:1007000015010E945701D0CF0E94310408F481E006
:1007100008950E949D030C946C040E94650458F097
:100720000E945E0440F029F45F3F29F00C945504C8
:1007300051110C94A0040C945B040E947D0468F396
:100740009923B1F3552391F3951B550BBB27AA278A
:1007500062177307840738F09F5F5F4F220F331FC4
:10076000441FAA1FA9F335D00E2E3AF0E0E832D08C
:1007700091505040E695001CCAF72BD0FE2F29D08F
:10078000660F771F881FBB1F261737074807AB0761
:10079000B0E809F0BB0B802DBF01FF2793585F4FD6
:1007A0003AF09E3F510578F00C9455040C94A00447
:1007B0005F3FE4F3983ED4F3869577956795B795B8
:1007C000F7959F5FC9F7880F911D9695879597F9C3
:1007D0000895E1E0660F771F881FBB1F621773073C
:1007E0008407BA0720F0621B730B840BBA0BEE1F51
:1007F00088F7E09508950E9402046894B1110C9462
:10080000A00408950E94850488F09F5798F0B92F9E
:100810009927B751B0F0E1F0660F771F881F991F35
:100820001AF0BA95C9F714C0B13091F00E949F0434
:10083000B1E008950C949F04672F782F8827B85F44
:1008400039F0B93FCCF3869577956795B395D9F78D
:100850003EF490958095709561957F4F8F4F9F4F97
:100860000895990F0008550FAA0BE0E8FEEF161641
:100870001706E807F907C0F012161306E407F50794
:1008800098F0621B730B840B950B39F40A2661F008
:10089000232B242B252B21F408950A2609F4A140AB
:1008A000A6958FEF811D811D089597F99F6780E8B8
:1008B00070E060E008959FEF80EC089500240A94B2
:1008C0001616170618060906089500240A9412162B
:1008D0001306140605060895092E0394000C11F45E
:1008E000882352F0BB0F40F4BF2B11F460FF04C00B
:1008F0006F5F7F4F8F4F9F4F089557FD9058440F64
:10090000551F59F05F3F71F04795880F97FB991F6E
:1009100061F09F3F79F0879508951216130614062B
:10092000551FF2CF4695F1DF08C0161617061806B8
:10093000991FF1CF86957105610508940895E89493
:10094000BB2766277727CB0197F908950E943104CA
:1009500008F48FEF08950E94BE040C946C040E946A
:100960005E0438F00E94650420F0952311F00C9489
:1009700055040C945B0411240C94A0040E947D0483
:1009800070F3959FC1F3950F50E0551F629FF001E2
:10099000729FBB27F00DB11D639FAA27F00DB11DFB
:1009A000AA1F649F6627B00DA11D661F829F222784
:1009B000B00DA11D621F739FB00DA11D621F839F0B
:1009C000A00D611D221F749F3327A00D611D231FE1
:1009D000849F600D211D822F762F6A2F11249F572F
:1009E00050409AF0F1F088234AF0EE0FFF1FBB1F32
:1009F000661F771F881F91505040A9F79E3F5105F1
:100A000080F00C9455040C94A0045F3FE4F3983EEE
:100A1000D4F3869577956795B795F795E7959F5F9A
:100A2000C1F7FE2B880F911D9695879597F908952C
:040A3000F894FFCF68
:0E0A340000000002000000006700000000004B
:00000001FF
