:100000000C9446000C9465000C9465000C946500FB
:100010000C9465000C9465000C9465000C946500CC
:100020000C9465000C9465000C9465000C946500BC
:100030000C9465000C9465000C9465000C946500AC
:100040000C9465000C9465000C9465000C9465009C
:100050000C9465000C9465000C9465000C9465008C
:100060000C9465000C9465000C9465000C9465007C
:100070000C9465000C9465000C9465000C9465006C
:100080000C9465000C9465000C94650011241FBE4F
:10009000CFEFD0E4DEBFCDBF11E0A0E0B1E0E0E9FA
:1000A000F9E000E00BBF02C007900D92AE30B1073F
:1000B000D9F721E0AEE0B1E001C01D92A731B2074F
:1000C000E1F70E94E4020C94C6040C940000CF9364
:1000D000DF9300D01F92CDB7DEB789837B836A831D
:1000E00089818A3031F48A819B81BC018DE00E9434
:1000F000670080EC90E0FC018081882F90E08072A6
:100100009927892BB1F386EC90E02981FC012083AB
:1001100080E090E00F900F900F90DF91CF910895C5
:100120000F931F93CF93DF9300D000D0CDB7DEB7EE
:1001300069837A838B839C8380910E0190910F0158
:10014000A0911001B09111019C01AD0169817A81EA
:100150008B819C810E943203882309F477C020E0C0
:1001600030E0A90169817A818B819C810E943203F0
:10017000882351F481E990E021E930E0F901208100
:100180002870FC01208309C081E990E021E930E07A
:10019000F90120812360FC01208328E539E344E74D
:1001A0005FE369817A818B819C810E94320388237D
:1001B00044F488E990E02FEF3FEFFC013183208386
:1001C00034C020E034E244EF56E469817A818B81C7
:1001D0009C810E945404181634F488E990E0FC01D4
:1001E0001182108222C008E910E020E030E040E0F7
:1001F00053E469817A818B819C810E945904DC01DE
:10020000CB019C01AD0160E074E284EF9AE40E94AE
:100210003703DC01CB01BC01CD010E94A903DC0145
:10022000CB010197F8019183808384E990E0FC0180
:100230001182108289819A81AB81BC8180930E01E9
:1002400090930F01A0931001B093110100000F9043
:100250000F900F900F90DF91CF911F910F91089504
:10026000CF93DF93CDB7DEB780E990E020E4FC01C7
:10027000208381E990E02BE0FC01208360E070E0C6
:10028000CB010E9490000000DF91CF910895CF93A1
:10029000DF93CDB7DEB780E990E0FC01108281E901
:1002A00090E0FC0110820000DF91CF910895CF9380
:1002B000DF93CDB7DEB780911301909114018230A6
:1002C000910509F41EC18330910538F4009709F4B3
:1002D00068C0019709F4BDC06CC18330910551F02D
:1002E000049709F066C183E090E090931401809335
:1002F000130166C160E070E0CB010E949000809124
:100300001201882379F480911601882359F4809191
:100310001501882339F483E090E0909314018093D1
:1003200013013EC080911201882369F0809116016B
:10033000882349F480911501882329F4109214012F
:10034000109213012DC080911201882379F48091BD
:100350001601882359F080911501882339F481E032
:1003600090E090931401809313011AC080911201C0
:10037000882379F480911601882359F4809115011E
:10038000882339F082E090E0909314018093130168
:1003900007C083E090E0909314018093130110C193
:1003A0000FC164EA70ED82E893E40E9490008091AE
:1003B0001201882379F480911601882359F48091E1
:1003C0001501882339F483E090E090931401809321
:1003D00013013EC080911201882369F080911601BB
:1003E000882349F480911501882329F4109214017F
:1003F000109213012DC080911201882379F480910D
:100400001601882359F080911501882339F481E081
:1004100090E090931401809313011AC0809112010F
:10042000882379F480911601882359F4809115016D
:10043000882339F082E090E09093140180931301B7
:1004400007C083E090E09093140180931301B8C03B
:10045000B7C06BE774ED82E993E40E94900080914D
:100460001201882379F480911601882359F4809130
:100470001501882339F483E090E090931401809370
:1004800013013EC080911201882369F0809116010A
:10049000882349F480911501882329F410921401CE
:1004A000109213012DC080911201882379F480915C
:1004B0001601882359F080911501882339F481E0D1
:1004C00090E090931401809313011AC0809112015F
:1004D000882379F480911601882359F480911501BD
:1004E000882339F082E090E0909314018093130107
:1004F00007C083E090E0909314018093130160C0E3
:100500005FC064EA70ED84EA93E40E9490008091F9
:100510001201882379F480911601882359F480917F
:100520001501882339F483E090E0909314018093BF
:1005300013013EC080911201882369F08091160159
:10054000882349F480911501882329F4109214011D
:10055000109213012DC080911201882379F48091AB
:100560001601882359F080911501882339F481E020
:1005700090E090931401809313011AC080911201AE
:10058000882379F480911601882359F4809115010C
:10059000882339F082E090E0909314018093130156
:1005A00007C083E090E0909314018093130108C08A
:1005B00007C083E090E09093140180931301000042
:1005C0000000DF91CF910895CF93DF93CDB7DEB7D1
:1005D00081E290E0FC01108280E290E02FEFFC01CC
:1005E000208384E290E020E4FC01208385E290E017
:1005F000FC0110820E94300184E090E0909314018D
:100600008093130180E290E0FC018081882F90E0CC
:100610008170992721E0892B09F020E0822F8093B7
:10062000120180E290E0FC018081882F90E08095AB
:10063000909582709927959587958093160180E211
:1006400090E0FC018081882F90E0809590958470E7
:1006500099279595879595958795809315010E9483
:100660005701D0CF0E94DF0308F481E008950E9473
:100670004B030C941A040E94130458F00E940C04BB
:1006800040F029F45F3F29F00C94030451110C94BD
:100690004E040C9409040E942B0468F39923B1F3CF
:1006A000552391F3951B550BBB27AA276217730798
:1006B000840738F09F5F5F4F220F331F441FAA1F2C
:1006C000A9F335D00E2E3AF0E0E832D091505040E8
:1006D000E695001CCAF72BD0FE2F29D0660F771F96
:1006E000881FBB1F261737074807AB07B0E809F07C
:1006F000BB0B802DBF01FF2793585F4F3AF09E3F01
:10070000510578F00C9403040C944E045F3FE4F31D
:10071000983ED4F3869577956795B795F7959F5F43
:10072000C9F7880F911D9695879597F90895E1E08F
:10073000660F771F881FBB1F621773078407BA07EE
:1007400020F0621B730B840BBA0BEE1F88F7E09549
:1007500008950E94B0036894B1110C944E0408955A
:100760000E94330488F09F5798F0B92F9927B7510A
:10077000B0F0E1F0660F771F881F991F1AF0BA9545
:10078000C9F714C0B13091F00E944D04B1E0089552
:100790000C944D04672F782F8827B85F39F0B93F44
:1007A000CCF3869577956795B395D9F73EF49095F8
:1007B0008095709561957F4F8F4F9F4F0895990F4A
:1007C0000008550FAA0BE0E8FEEF16161706E8071B
:1007D000F907C0F012161306E407F50798F0621B3C
:1007E000730B840B950B39F40A2661F0232B242B11
:1007F000252B21F408950A2609F4A140A6958FEF30
:10080000811D811D089597F99F6780E870E060E081
:1008100008959FEF80EC089500240A941616170699
:1008200018060906089500240A94121613061406E1
:1008300005060895092E0394000C11F4882352F044
:10084000BB0F40F4BF2B11F460FF04C06F5F7F4FFC
:100850008F4F9F4F089557FD9058440F551F59F0E3
:100860005F3F71F04795880F97FB991F61F09F3F9D
:1008700079F087950895121613061406551FF2CFC6
:100880004695F1DF08C0161617061806991FF1CF16
:1008900086957105610508940895E894BB2766273D
:1008A0007727CB0197F908950E94DF0308F48FEFB3
:1008B00008950E946C040C941A040E940C0438F0F1
:1008C0000E94130420F0952311F00C9403040C945F
:1008D000090411240C944E040E942B0470F3959F7C
:1008E000C1F3950F50E0551F629FF001729FBB2727
:1008F000F00DB11D639FAA27F00DB11DAA1F649FC3
:100900006627B00DA11D661F829F2227B00DA11D75
:10091000621F739FB00DA11D621F839FA00D611DFB
:10092000221F749F3327A00D611D231F849F600D1C
:10093000211D822F762F6A2F11249F5750409AF045
:10094000F1F088234AF0EE0FFF1FBB1F661F771FD1
:10095000881F91505040A9F79E3F510580F00C949C
:1009600003040C944E045F3FE4F3983ED4F3869561
:1009700077956795B795F795E7959F5FC1F7FE2B3C
:10098000880F911D9695879597F90895F894FFCF54
:0E0990000000000200000000670000000000F0
:00000001FF
