:100000000C9446000C9465000C9465000C946500FB
:100010000C9465000C9465000C9465000C946500CC
:100020000C9465000C9465000C9465000C946500BC
:100030000C9465000C9465000C9465000C946500AC
:100040000C9465000C9465000C9465000C9465009C
:100050000C9465000C9465000C9465000C9465008C
:100060000C9465000C9465000C9465000C9465007C
:100070000C9465000C9465000C9465000C9465006C
:100080000C9465000C9465000C94650011241FBE4F
:10009000CFEFD0E4DEBFCDBF11E0A0E0B1E0E6E4F9
:1000A000F9E000E00BBF02C007900D92AE30B1073F
:1000B000D9F721E0AEE0B1E001C01D92A831B2074E
:1000C000E1F70E94C1020C94A1040C940000CF93AC
:1000D000DF9300D01F92CDB7DEB789837B836A831D
:1000E00089818A3031F48A819B81BC018DE00E9434
:1000F000670080EC90E0FC018081882F90E08072A6
:100100009927892BB1F386EC90E02981FC012083AB
:1001100080E090E00F900F900F90DF91CF910895C5
:100120000F931F93CF93DF9300D000D0CDB7DEB7EE
:1001300069837A838B839C8380910F019091100156
:10014000A0911101B09112019C01AD0169817A81E8
:100150008B819C810E940D03882309F477C020E0E5
:1001600030E0A90169817A818B819C810E940D0315
:10017000882351F481E990E021E930E0F901208100
:100180002870FC01208309C081E990E021E930E07A
:10019000F90120812360FC01208328E539E344E74D
:1001A0005FE369817A818B819C810E940D038823A2
:1001B00044F488E990E02FEF3FEFFC013183208386
:1001C00034C020E034E244EF56E469817A818B81C7
:1001D0009C810E942F04181634F488E990E0FC01F9
:1001E0001182108222C008E910E020E030E040E0F7
:1001F00053E469817A818B819C810E943404DC0103
:10020000CB019C01AD0160E074E284EF9AE40E94AE
:100210001203DC01CB01BC01CD010E948403DC018F
:10022000CB010197F8019183808384E990E0FC0180
:100230001182108289819A81AB81BC8180930F01E8
:1002400090931001A0931101B093120100000F9040
:100250000F900F900F90DF91CF911F910F91089504
:10026000CF93DF93CDB7DEB780E990E020E4FC01C7
:10027000208381E990E02BE0FC01208360E070E0C6
:10028000CB010E9490000000DF91CF910895CF93A1
:10029000DF93CDB7DEB780E990E0FC01108281E901
:1002A00090E0FC0110820000DF91CF910895CF9380
:1002B000DF93CDB7DEB780911401909115018230A4
:1002C0009105D1F08330910528F4009771F00197E2
:1002D000E1F14EC18430910509F454C08430910598
:1002E00010F1059709F4DEC043C181E090E09093DE
:1002F00015018093140141C10E94470181E0809360
:100300000E0180911301882339F082E090E09093F0
:1003100015018093140131C183E090E090931501A1
:10032000809314012AC180911301882339F081E060
:1003300090E090931501809314011FC183E090E039
:10034000909315018093140118C10E94300164EA52
:1003500070ED82E893E40E94900081E080930E01AA
:1003600080911301882339F484E090E09093150183
:100370008093140102C181E090E090931501809375
:100380001401FBC080910E01813031F464EA70EDFC
:1003900082E893E40E94900080910E01823031F453
:1003A0006BE774ED82E993E40E94900080910E0166
:1003B000833031F464EA70ED84EA93E40E949000A3
:1003C00080910E01843031F461E77DE98EEA93E497
:1003D0000E94900080910E01853031F460E070E061
:1003E00084EC93E40E94900080910E01863031F4F9
:1003F00060E070E08CED93E40E94900080910E012B
:10040000873031F464EA70EF86EF93E40E94900045
:1004100080910E01883031F460E070ED82E094E468
:100420000E94900080911301882339F082E090E0CF
:100430009093150180931401A0C080911701882327
:1004400099F080910E018F5F80930E0180910E01D3
:10045000893018F088E080930E0185E090E0909359
:1004600015018093140189C080911601882399F0A9
:1004700080910E01815080930E0180910E0188239E
:1004800019F481E080930E0185E090E090931501CE
:100490008093140172C084E090E0909315018093E2
:1004A00014016BC080910E01813031F464EA70ED6B
:1004B00082E893E40E94900080910E01823031F432
:1004C0006BE774ED82E993E40E94900080910E0145
:1004D000833031F464EA70ED84EA93E40E94900082
:1004E00080910E01843031F461E77DE98EEA93E476
:1004F0000E94900080910E01853031F460E070E040
:1005000084EC93E40E94900080910E01863031F4D7
:1005100060E070E08CED93E40E94900080910E0109
:10052000873031F464EA70EF86EF93E40E94900024
:1005300080910E01883031F460E070ED82E094E447
:100540000E94900080911701882359F48091160130
:10055000882339F484E090E090931501809314018E
:100560000CC085E090E0909315018093140105C0C4
:10057000109215011092140100000000DF91CF913C
:100580000895CF93DF93CDB7DEB781E290E0FC0111
:10059000108280E290E02FEFFC01208384E290E063
:1005A00020E4FC01208385E290E0FC0110820E949F
:1005B0003001109215011092140180E290E0FC01CC
:1005C0008081882F90E08170992721E0892B09F0A4
:1005D00020E0822F8093130180E290E0FC01808173
:1005E000882F90E0809590958270992795958795B2
:1005F0008093170180E290E0FC018081882F90E0D9
:100600008095909584709927959587959595879570
:10061000809316010E945701D0CF0E94BA0308F4BC
:1006200081E008950E9426030C94F5030E94EE03D6
:1006300058F00E94E70340F029F45F3F29F00C9442
:10064000DE0351110C9429040C94E4030E94060467
:1006500068F39923B1F3552391F3951B550BBB27F1
:10066000AA2762177307840738F09F5F5F4F220F36
:10067000331F441FAA1FA9F335D00E2E3AF0E0E82D
:1006800032D091505040E695001CCAF72BD0FE2F77
:1006900029D0660F771F881FBB1F2617370748070B
:1006A000AB07B0E809F0BB0B802DBF01FF279358C3
:1006B0005F4F3AF09E3F510578F00C94DE030C94A6
:1006C00029045F3FE4F3983ED4F3869577956795C8
:1006D000B795F7959F5FC9F7880F911D96958795F8
:1006E00097F90895E1E0660F771F881FBB1F621717
:1006F00073078407BA0720F0621B730B840BBA0BD5
:10070000EE1F88F7E09508950E948B036894B1115D
:100710000C94290408950E940E0488F09F5798F0C5
:10072000B92F9927B751B0F0E1F0660F771F881FF6
:10073000991F1AF0BA95C9F714C0B13091F00E9410
:100740002804B1E008950C942804672F782F882797
:10075000B85F39F0B93FCCF3869577956795B39537
:10076000D9F73EF490958095709561957F4F8F4FA6
:100770009F4F0895990F0008550FAA0BE0E8FEEF70
:1007800016161706E807F907C0F012161306E40755
:10079000F50798F0621B730B840B950B39F40A264E
:1007A00061F0232B242B252B21F408950A2609F42C
:1007B000A140A6958FEF811D811D089597F99F6730
:1007C00080E870E060E008959FEF80EC08950024D9
:1007D0000A941616170618060906089500240A94A6
:1007E00012161306140605060895092E0394000C2C
:1007F00011F4882352F0BB0F40F4BF2B11F460FFBB
:1008000004C06F5F7F4F8F4F9F4F089557FD9058E3
:10081000440F551F59F05F3F71F04795880F97FBC4
:10082000991F61F09F3F79F087950895121613067E
:100830001406551FF2CF4695F1DF08C016161706AD
:100840001806991FF1CF86957105610508940895E2
:10085000E894BB2766277727CB0197F908950E9474
:10086000BA0308F48FEF08950E9447040C94F5032F
:100870000E94E70338F00E94EE0320F0952311F068
:100880000C94DE030C94E40311240C9429040E94BC
:10089000060470F3959FC1F3950F50E0551F629FBA
:1008A000F001729FBB27F00DB11D639FAA27F00DC9
:1008B000B11DAA1F649F6627B00DA11D661F829FF0
:1008C0002227B00DA11D621F739FB00DA11D621FD5
:1008D000839FA00D611D221F749F3327A00D611DF2
:1008E000231F849F600D211D822F762F6A2F1124D4
:1008F0009F5750409AF0F1F088234AF0EE0FFF1F07
:10090000BB1F661F771F881F91505040A9F79E3F5D
:10091000510580F00C94DE030C9429045F3FE4F34E
:10092000983ED4F3869577956795B795F795E795B3
:100930009F5FC1F7FE2B880F911D9695879597F9BC
:060940000895F894FFCFBA
:0E09460000000002000000006700000000003A
:00000001FF
